:100000000C9446000C945D000C945D000C945D0013
:100010000C945D000C945D000C945D000C945D00EC
:100020000C945D000C945D000C945D000C945D00DC
:100030000C945D000C945D000C945D000C945D00CC
:100040000C945D000C945D000C945D000C945D00BC
:100050000C945D000C945D000C945D000C945D00AC
:100060000C945D000C945D000C945D000C945D009C
:100070000C945D000C945D000C945D000C945D008C
:100080000C945D000C945D000C945D0011241FBE67
:10009000CFEFD0E4DEBFCDBF11E0A0E0B1E0E6ECF1
:1000A000F1E000E00BBF02C007900D92AE30B10747
:1000B000D9F70E9488000C94E1000C940000CF93C3
:1000C000DF9300D01F92CDB7DEB789837B836A832D
:1000D00089818A3031F48A819B81BC018DE00E9444
:1000E0005F0080EC90E0FC018081882F90E08072BE
:1000F00099270097B1F386EC90E02981FC012083D9
:1001000080E090E00F900F900F90DF91CF910895D5
:10011000CF93DF9300D0CDB7DEB78AE290E0FC0149
:1001200010828BE290E02FEFFC01208384E290E0CC
:100130002EEFFC01208385E290E021E0FC0120838A
:100140001A82198289E290E0FC018081882F90E078
:100150009C01220F331F83E290E0FC018081882FF5
:1001600090E081709927822B932B9A8389838981D0
:100170009A818630910550F485E290E023E230E0E8
:10018000F90120812170FC0120831AC089819A81A4
:100190008634910558F485E290E023E230E0F901DD
:1001A000208121702460FC0120830AC085E290E058
:1001B00023E230E0F901208121702260FC012083DC
:0601C000C1CFF894FFCF4F
:0E01C60000000002000000005F0000000000CA
:00000001FF
