:100000000C9446000C945D000C945D000C945D0013
:100010000C945D000C945D000C945D000C945D00EC
:100020000C945D000C945D000C945D000C945D00DC
:100030000C945D000C945D000C945D000C945D00CC
:100040000C945D000C945D000C945D000C945D00BC
:100050000C945D000C945D000C945D000C945D00AC
:100060000C945D000C945D000C945D000C945D009C
:100070000C945D000C945D000C945D000C945D008C
:100080000C945D000C945D000C945D0011241FBE67
:10009000CFEFD0E4DEBFCDBF11E0A0E0B1E0E8EEED
:1000A000F1E000E00BBF02C007900D92AE30B10747
:1000B000D9F70E9488000C94F2000C940000CF93B2
:1000C000DF9300D01F92CDB7DEB789837B836A832D
:1000D00089818A3031F48A819B81BC018DE00E9444
:1000E0005F0080EC90E0FC018081882F90E08072BE
:1000F00099270097B1F386EC90E02981FC012083D9
:1001000080E090E00F900F900F90DF91CF910895D5
:10011000CF93DF9300D01F92CDB7DEB781E290E09E
:10012000FC01108282E290E02FEFFC01208387E245
:1001300090E02FEFFC01208388E290E0FC01108228
:10014000198280E290E0FC0180818A838A818F702D
:100150008B838B81882311F4198220C08B8183309B
:1001600018F480E289831AC08B81853018F480E30B
:10017000898314C08B81873018F488E389830EC08B
:100180008B818A3018F48CE3898308C08B818D3091
:1001900018F48EE3898302C08FE389838B818530D5
:1001A00018F48981806489838A81882F90E0807126
:1001B0009927009789F08A81882F90E0807299278B
:1001C000009751F08A81882F90E0807499270097DA
:1001D00019F489818068898388E290E02981FC0193
:0801E0002083AECFF894FFCF9D
:0E01E80000000002000000005F0000000000A8
:00000001FF
